{
  "_format": "hh-sol-artifact-1",
  "contractName": "MyToken",
  "sourceName": "contracts/MyToken.sol",
  "abi": [
    {
      "inputs": [],
      "stateMutability": "payable",
      "type": "constructor"
    },
    {
      "inputs": [
        {
          "internalType": "address",
          "name": "spender",
          "type": "address"
        },
        {
          "internalType": "uint256",
          "name": "allowance",
          "type": "uint256"
        },
        {
          "internalType": "uint256",
          "name": "needed",
          "type": "uint256"
        }
      ],
      "name": "ERC20InsufficientAllowance",
      "type": "error"
    },
    {
      "inputs": [
        {
          "internalType": "address",
          "name": "sender",
          "type": "address"
        },
        {
          "internalType": "uint256",
          "name": "balance",
          "type": "uint256"
        },
        {
          "internalType": "uint256",
          "name": "needed",
          "type": "uint256"
        }
      ],
      "name": "ERC20InsufficientBalance",
      "type": "error"
    },
    {
      "inputs": [
        {
          "internalType": "address",
          "name": "approver",
          "type": "address"
        }
      ],
      "name": "ERC20InvalidApprover",
      "type": "error"
    },
    {
      "inputs": [
        {
          "internalType": "address",
          "name": "receiver",
          "type": "address"
        }
      ],
      "name": "ERC20InvalidReceiver",
      "type": "error"
    },
    {
      "inputs": [
        {
          "internalType": "address",
          "name": "sender",
          "type": "address"
        }
      ],
      "name": "ERC20InvalidSender",
      "type": "error"
    },
    {
      "inputs": [
        {
          "internalType": "address",
          "name": "spender",
          "type": "address"
        }
      ],
      "name": "ERC20InvalidSpender",
      "type": "error"
    },
    {
      "anonymous": false,
      "inputs": [
        {
          "indexed": true,
          "internalType": "address",
          "name": "owner",
          "type": "address"
        },
        {
          "indexed": true,
          "internalType": "address",
          "name": "spender",
          "type": "address"
        },
        {
          "indexed": false,
          "internalType": "uint256",
          "name": "value",
          "type": "uint256"
        }
      ],
      "name": "Approval",
      "type": "event"
    },
    {
      "anonymous": false,
      "inputs": [
        {
          "indexed": true,
          "internalType": "address",
          "name": "from",
          "type": "address"
        },
        {
          "indexed": true,
          "internalType": "address",
          "name": "to",
          "type": "address"
        },
        {
          "indexed": false,
          "internalType": "uint256",
          "name": "value",
          "type": "uint256"
        }
      ],
      "name": "Transfer",
      "type": "event"
    },
    {
      "anonymous": false,
      "inputs": [
        {
          "indexed": false,
          "internalType": "string",
          "name": "roomID",
          "type": "string"
        },
        {
          "indexed": false,
          "internalType": "uint256",
          "name": "amount",
          "type": "uint256"
        }
      ],
      "name": "initsuccess",
      "type": "event"
    },
    {
      "inputs": [
        {
          "internalType": "address payable",
          "name": "_to",
          "type": "address"
        },
        {
          "internalType": "uint256",
          "name": "val",
          "type": "uint256"
        }
      ],
      "name": "WithdrawCoin",
      "outputs": [],
      "stateMutability": "payable",
      "type": "function"
    },
    {
      "inputs": [
        {
          "internalType": "address",
          "name": "owner",
          "type": "address"
        },
        {
          "internalType": "address",
          "name": "spender",
          "type": "address"
        }
      ],
      "name": "allowance",
      "outputs": [
        {
          "internalType": "uint256",
          "name": "",
          "type": "uint256"
        }
      ],
      "stateMutability": "view",
      "type": "function"
    },
    {
      "inputs": [
        {
          "internalType": "address",
          "name": "spender",
          "type": "address"
        },
        {
          "internalType": "uint256",
          "name": "value",
          "type": "uint256"
        }
      ],
      "name": "approve",
      "outputs": [
        {
          "internalType": "bool",
          "name": "",
          "type": "bool"
        }
      ],
      "stateMutability": "nonpayable",
      "type": "function"
    },
    {
      "inputs": [
        {
          "internalType": "address",
          "name": "account",
          "type": "address"
        }
      ],
      "name": "balanceOf",
      "outputs": [
        {
          "internalType": "uint256",
          "name": "",
          "type": "uint256"
        }
      ],
      "stateMutability": "view",
      "type": "function"
    },
    {
      "inputs": [],
      "name": "decimals",
      "outputs": [
        {
          "internalType": "uint8",
          "name": "",
          "type": "uint8"
        }
      ],
      "stateMutability": "view",
      "type": "function"
    },
    {
      "inputs": [],
      "name": "deposit",
      "outputs": [],
      "stateMutability": "payable",
      "type": "function"
    },
    {
      "inputs": [
        {
          "internalType": "uint256",
          "name": "pos",
          "type": "uint256"
        },
        {
          "internalType": "string",
          "name": "RoomID",
          "type": "string"
        }
      ],
      "name": "gameEnd",
      "outputs": [],
      "stateMutability": "nonpayable",
      "type": "function"
    },
    {
      "inputs": [
        {
          "internalType": "string",
          "name": "RoomID",
          "type": "string"
        }
      ],
      "name": "gameStart",
      "outputs": [],
      "stateMutability": "nonpayable",
      "type": "function"
    },
    {
      "inputs": [],
      "name": "name",
      "outputs": [
        {
          "internalType": "string",
          "name": "",
          "type": "string"
        }
      ],
      "stateMutability": "view",
      "type": "function"
    },
    {
      "inputs": [],
      "name": "owner",
      "outputs": [
        {
          "internalType": "address payable",
          "name": "",
          "type": "address"
        }
      ],
      "stateMutability": "view",
      "type": "function"
    },
    {
      "inputs": [
        {
          "internalType": "address",
          "name": "sender",
          "type": "address"
        },
        {
          "internalType": "uint256",
          "name": "val",
          "type": "uint256"
        },
        {
          "internalType": "string",
          "name": "roomID",
          "type": "string"
        },
        {
          "internalType": "uint256",
          "name": "pos",
          "type": "uint256"
        }
      ],
      "name": "receiveFunds",
      "outputs": [],
      "stateMutability": "nonpayable",
      "type": "function"
    },
    {
      "inputs": [],
      "name": "symbol",
      "outputs": [
        {
          "internalType": "string",
          "name": "",
          "type": "string"
        }
      ],
      "stateMutability": "view",
      "type": "function"
    },
    {
      "inputs": [],
      "name": "totalSupply",
      "outputs": [
        {
          "internalType": "uint256",
          "name": "",
          "type": "uint256"
        }
      ],
      "stateMutability": "view",
      "type": "function"
    },
    {
      "inputs": [
        {
          "internalType": "address",
          "name": "to",
          "type": "address"
        },
        {
          "internalType": "uint256",
          "name": "value",
          "type": "uint256"
        }
      ],
      "name": "transfer",
      "outputs": [
        {
          "internalType": "bool",
          "name": "",
          "type": "bool"
        }
      ],
      "stateMutability": "nonpayable",
      "type": "function"
    },
    {
      "inputs": [
        {
          "internalType": "address",
          "name": "from",
          "type": "address"
        },
        {
          "internalType": "address",
          "name": "to",
          "type": "address"
        },
        {
          "internalType": "uint256",
          "name": "value",
          "type": "uint256"
        }
      ],
      "name": "transferFrom",
      "outputs": [
        {
          "internalType": "bool",
          "name": "",
          "type": "bool"
        }
      ],
      "stateMutability": "nonpayable",
      "type": "function"
    }
  ],
  "bytecode": "0x60806040526040518060400160405280600981526020017f446547656e436f696e00000000000000000000000000000000000000000000008152506040518060400160405280600381526020017f4447430000000000000000000000000000000000000000000000000000000000815250816003908162000081919062000357565b50806004908162000093919062000357565b50505030600560006101000a81548173ffffffffffffffffffffffffffffffffffffffff021916908373ffffffffffffffffffffffffffffffffffffffff1602179055506200043e565b600081519050919050565b7f4e487b7100000000000000000000000000000000000000000000000000000000600052604160045260246000fd5b7f4e487b7100000000000000000000000000000000000000000000000000000000600052602260045260246000fd5b600060028204905060018216806200015f57607f821691505b60208210810362000175576200017462000117565b5b50919050565b60008190508160005260206000209050919050565b60006020601f8301049050919050565b600082821b905092915050565b600060088302620001df7fffffffffffffffffffffffffffffffffffffffffffffffffffffffffffffffff82620001a0565b620001eb8683620001a0565b95508019841693508086168417925050509392505050565b6000819050919050565b6000819050919050565b600062000238620002326200022c8462000203565b6200020d565b62000203565b9050919050565b6000819050919050565b620002548362000217565b6200026c62000263826200023f565b848454620001ad565b825550505050565b600090565b6200028362000274565b6200029081848462000249565b505050565b5b81811015620002b857620002ac60008262000279565b60018101905062000296565b5050565b601f8211156200030757620002d1816200017b565b620002dc8462000190565b81016020851015620002ec578190505b62000304620002fb8562000190565b83018262000295565b50505b505050565b600082821c905092915050565b60006200032c600019846008026200030c565b1980831691505092915050565b600062000347838362000319565b9150826002028217905092915050565b6200036282620000dd565b67ffffffffffffffff8111156200037e576200037d620000e8565b5b6200038a825462000146565b62000397828285620002bc565b600060209050601f831160018114620003cf5760008415620003ba578287015190505b620003c6858262000339565b86555062000436565b601f198416620003df866200017b565b60005b828110156200040957848901518255600182019150602085019450602081019050620003e2565b8683101562000429578489015162000425601f89168262000319565b8355505b6001600288020188555050505b505050505050565b6126d8806200044e6000396000f3fe6080604052600436106100e85760003560e01c806370a082311161008a578063d0e30db011610059578063d0e30db01461030a578063dd62ed3e14610314578063df54439d14610351578063e616ba001461037a576100e8565b806370a082311461023a5780638da5cb5b1461027757806395d89b41146102a2578063a9059cbb146102cd576100e8565b806318160ddd116100c657806318160ddd1461017e57806323b872dd146101a9578063313ce567146101e65780636d146cfc14610211576100e8565b806306fdde03146100ed578063095ea7b314610118578063167da98c14610155575b600080fd5b3480156100f957600080fd5b50610102610396565b60405161010f9190611be9565b60405180910390f35b34801561012457600080fd5b5061013f600480360381019061013a9190611ca9565b610428565b60405161014c9190611d04565b60405180910390f35b34801561016157600080fd5b5061017c60048036038101906101779190611d84565b61044b565b005b34801561018a57600080fd5b50610193610c4d565b6040516101a09190611df3565b60405180910390f35b3480156101b557600080fd5b506101d060048036038101906101cb9190611e0e565b610c57565b6040516101dd9190611d04565b60405180910390f35b3480156101f257600080fd5b506101fb610c86565b6040516102089190611e7d565b60405180910390f35b34801561021d57600080fd5b5061023860048036038101906102339190611e98565b610c8f565b005b34801561024657600080fd5b50610261600480360381019061025c9190611f20565b610d9a565b60405161026e9190611df3565b60405180910390f35b34801561028357600080fd5b5061028c610de2565b6040516102999190611f6e565b60405180910390f35b3480156102ae57600080fd5b506102b7610e08565b6040516102c49190611be9565b60405180910390f35b3480156102d957600080fd5b506102f460048036038101906102ef9190611ca9565b610e9a565b6040516103019190611d04565b60405180910390f35b610312610ebd565b005b34801561032057600080fd5b5061033b60048036038101906103369190611f89565b610ed7565b6040516103489190611df3565b60405180910390f35b34801561035d57600080fd5b5061037860048036038101906103739190611fc9565b610f5e565b005b610394600480360381019061038f9190612042565b6113ac565b005b6060600380546103a5906120b1565b80601f01602080910402602001604051908101604052809291908181526020018280546103d1906120b1565b801561041e5780601f106103f35761010080835404028352916020019161041e565b820191906000526020600020905b81548152906001019060200180831161040157829003601f168201915b5050505050905090565b6000806104336114b7565b90506104408185856114bf565b600191505092915050565b600283036108865761055d3060068484604051610469929190612121565b908152602001604051809103902060006002811061048a5761048961213a565b5b0160009054906101000a900473ffffffffffffffffffffffffffffffffffffffff16600a600960076000600689896040516104c6929190612121565b90815260200160405180910390206000600281106104e7576104e661213a565b5b0160009054906101000a900473ffffffffffffffffffffffffffffffffffffffff1673ffffffffffffffffffffffffffffffffffffffff1673ffffffffffffffffffffffffffffffffffffffff1681526020019081526020016000205461054e9190612198565b6105589190612209565b6114d1565b6106673060068484604051610573929190612121565b90815260200160405180910390206001600281106105945761059361213a565b5b0160009054906101000a900473ffffffffffffffffffffffffffffffffffffffff16600a600960076000600689896040516105d0929190612121565b90815260200160405180910390206001600281106105f1576105f061213a565b5b0160009054906101000a900473ffffffffffffffffffffffffffffffffffffffff1673ffffffffffffffffffffffffffffffffffffffff1673ffffffffffffffffffffffffffffffffffffffff168152602001908152602001600020546106589190612198565b6106629190612209565b6114d1565b60006006838360405161067b929190612121565b908152602001604051809103902060006002811061069c5761069b61213a565b5b0160006101000a81548173ffffffffffffffffffffffffffffffffffffffff021916908373ffffffffffffffffffffffffffffffffffffffff1602179055506000600683836040516106ef929190612121565b90815260200160405180910390206001600281106107105761070f61213a565b5b0160006101000a81548173ffffffffffffffffffffffffffffffffffffffff021916908373ffffffffffffffffffffffffffffffffffffffff16021790555060006007600060068585604051610767929190612121565b90815260200160405180910390206000600281106107885761078761213a565b5b0160009054906101000a900473ffffffffffffffffffffffffffffffffffffffff1673ffffffffffffffffffffffffffffffffffffffff1673ffffffffffffffffffffffffffffffffffffffff1681526020019081526020016000208190555060006007600060068585604051610800929190612121565b90815260200160405180910390206001600281106108215761082061213a565b5b0160009054906101000a900473ffffffffffffffffffffffffffffffffffffffff1673ffffffffffffffffffffffffffffffffffffffff1673ffffffffffffffffffffffffffffffffffffffff16815260200190815260200160002081905550610c48565b610a2d306006848460405161089c929190612121565b908152602001604051809103902085600281106108bc576108bb61213a565b5b0160009054906101000a900473ffffffffffffffffffffffffffffffffffffffff16600a600960076000600689896040516108f8929190612121565b90815260200160405180910390206001600281106109195761091861213a565b5b0160009054906101000a900473ffffffffffffffffffffffffffffffffffffffff1673ffffffffffffffffffffffffffffffffffffffff1673ffffffffffffffffffffffffffffffffffffffff168152602001908152602001600020546007600060068a8a60405161098c929190612121565b90815260200160405180910390206000600281106109ad576109ac61213a565b5b0160009054906101000a900473ffffffffffffffffffffffffffffffffffffffff1673ffffffffffffffffffffffffffffffffffffffff1673ffffffffffffffffffffffffffffffffffffffff16815260200190815260200160002054610a14919061223a565b610a1e9190612198565b610a289190612209565b6114d1565b600060068383604051610a41929190612121565b9081526020016040518091039020600060028110610a6257610a6161213a565b5b0160006101000a81548173ffffffffffffffffffffffffffffffffffffffff021916908373ffffffffffffffffffffffffffffffffffffffff160217905550600060068383604051610ab5929190612121565b9081526020016040518091039020600160028110610ad657610ad561213a565b5b0160006101000a81548173ffffffffffffffffffffffffffffffffffffffff021916908373ffffffffffffffffffffffffffffffffffffffff16021790555060006007600060068585604051610b2d929190612121565b9081526020016040518091039020600060028110610b4e57610b4d61213a565b5b0160009054906101000a900473ffffffffffffffffffffffffffffffffffffffff1673ffffffffffffffffffffffffffffffffffffffff1673ffffffffffffffffffffffffffffffffffffffff1681526020019081526020016000208190555060006007600060068585604051610bc6929190612121565b9081526020016040518091039020600160028110610be757610be661213a565b5b0160009054906101000a900473ffffffffffffffffffffffffffffffffffffffff1673ffffffffffffffffffffffffffffffffffffffff1673ffffffffffffffffffffffffffffffffffffffff168152602001908152602001600020819055505b505050565b6000600254905090565b600080610c626114b7565b9050610c6f8582856115c5565b610c7a8585856114d1565b60019150509392505050565b60006012905090565b600a8411610cd2576040517f08c379a0000000000000000000000000000000000000000000000000000000008152600401610cc9906122ba565b60405180910390fd5b610cdd8530866114d1565b83600760008773ffffffffffffffffffffffffffffffffffffffff1673ffffffffffffffffffffffffffffffffffffffff168152602001908152602001600020819055508460068484604051610d34929190612121565b90815260200160405180910390208260028110610d5457610d5361213a565b5b0160006101000a81548173ffffffffffffffffffffffffffffffffffffffff021916908373ffffffffffffffffffffffffffffffffffffffff1602179055505050505050565b60008060008373ffffffffffffffffffffffffffffffffffffffff1673ffffffffffffffffffffffffffffffffffffffff168152602001908152602001600020549050919050565b600560009054906101000a900473ffffffffffffffffffffffffffffffffffffffff1681565b606060048054610e17906120b1565b80601f0160208091040260200160405190810160405280929190818152602001828054610e43906120b1565b8015610e905780601f10610e6557610100808354040283529160200191610e90565b820191906000526020600020905b815481529060010190602001808311610e7357829003601f168201915b5050505050905090565b600080610ea56114b7565b9050610eb28185856114d1565b600191505092915050565b610ed533620f424034610ed09190612198565b611659565b565b6000600160008473ffffffffffffffffffffffffffffffffffffffff1673ffffffffffffffffffffffffffffffffffffffff16815260200190815260200160002060008373ffffffffffffffffffffffffffffffffffffffff1673ffffffffffffffffffffffffffffffffffffffff16815260200190815260200160002054905092915050565b600073ffffffffffffffffffffffffffffffffffffffff1660068383604051610f88929190612121565b9081526020016040518091039020600060028110610fa957610fa861213a565b5b0160009054906101000a900473ffffffffffffffffffffffffffffffffffffffff1673ffffffffffffffffffffffffffffffffffffffff16141580156110705750600073ffffffffffffffffffffffffffffffffffffffff1660068383604051611014929190612121565b90815260200160405180910390206001600281106110355761103461213a565b5b0160009054906101000a900473ffffffffffffffffffffffffffffffffffffffff1673ffffffffffffffffffffffffffffffffffffffff1614155b6110af576040517f08c379a00000000000000000000000000000000000000000000000000000000081526004016110a690612326565b60405180910390fd5b600a60076000600685856040516110c7929190612121565b90815260200160405180910390206000600281106110e8576110e761213a565b5b0160009054906101000a900473ffffffffffffffffffffffffffffffffffffffff1673ffffffffffffffffffffffffffffffffffffffff1673ffffffffffffffffffffffffffffffffffffffff168152602001908152602001600020541180156111e55750600a6007600060068585604051611165929190612121565b90815260200160405180910390206001600281106111865761118561213a565b5b0160009054906101000a900473ffffffffffffffffffffffffffffffffffffffff1673ffffffffffffffffffffffffffffffffffffffff1673ffffffffffffffffffffffffffffffffffffffff16815260200190815260200160002054115b611224576040517f08c379a000000000000000000000000000000000000000000000000000000000815260040161121b90612392565b60405180910390fd5b7f5138ccaf355e83def6fb9f71b654dd4e249cd09a77154d2125ecb37989fbb7ea8282600a60096007600060068989604051611261929190612121565b90815260200160405180910390206001600281106112825761128161213a565b5b0160009054906101000a900473ffffffffffffffffffffffffffffffffffffffff1673ffffffffffffffffffffffffffffffffffffffff1673ffffffffffffffffffffffffffffffffffffffff168152602001908152602001600020546007600060068a8a6040516112f5929190612121565b90815260200160405180910390206000600281106113165761131561213a565b5b0160009054906101000a900473ffffffffffffffffffffffffffffffffffffffff1673ffffffffffffffffffffffffffffffffffffffff1673ffffffffffffffffffffffffffffffffffffffff1681526020019081526020016000205461137d919061223a565b6113879190612198565b6113919190612209565b6040516113a0939291906123df565b60405180910390a15050565b6113d7826113b8610c86565b60ff16600a6113c79190612544565b836113d29190612198565b6116db565b60008273ffffffffffffffffffffffffffffffffffffffff16620f42406113fc610c86565b60ff16600a61140b9190612544565b6114159190612209565b836114209190612198565b60405161142c906125c0565b60006040518083038185875af1925050503d8060008114611469576040519150601f19603f3d011682016040523d82523d6000602084013e61146e565b606091505b50509050806114b2576040517f08c379a00000000000000000000000000000000000000000000000000000000081526004016114a990612621565b60405180910390fd5b505050565b600033905090565b6114cc838383600161175d565b505050565b600073ffffffffffffffffffffffffffffffffffffffff168373ffffffffffffffffffffffffffffffffffffffff16036115435760006040517f96c6fd1e00000000000000000000000000000000000000000000000000000000815260040161153a9190612650565b60405180910390fd5b600073ffffffffffffffffffffffffffffffffffffffff168273ffffffffffffffffffffffffffffffffffffffff16036115b55760006040517fec442f050000000000000000000000000000000000000000000000000000000081526004016115ac9190612650565b60405180910390fd5b6115c0838383611934565b505050565b60006115d18484610ed7565b90507fffffffffffffffffffffffffffffffffffffffffffffffffffffffffffffffff81146116535781811015611643578281836040517ffb8f41b200000000000000000000000000000000000000000000000000000000815260040161163a9392919061266b565b60405180910390fd5b6116528484848403600061175d565b5b50505050565b600073ffffffffffffffffffffffffffffffffffffffff168273ffffffffffffffffffffffffffffffffffffffff16036116cb5760006040517fec442f050000000000000000000000000000000000000000000000000000000081526004016116c29190612650565b60405180910390fd5b6116d760008383611934565b5050565b600073ffffffffffffffffffffffffffffffffffffffff168273ffffffffffffffffffffffffffffffffffffffff160361174d5760006040517f96c6fd1e0000000000000000000000000000000000000000000000000000000081526004016117449190612650565b60405180910390fd5b61175982600083611934565b5050565b600073ffffffffffffffffffffffffffffffffffffffff168473ffffffffffffffffffffffffffffffffffffffff16036117cf5760006040517fe602df050000000000000000000000000000000000000000000000000000000081526004016117c69190612650565b60405180910390fd5b600073ffffffffffffffffffffffffffffffffffffffff168373ffffffffffffffffffffffffffffffffffffffff16036118415760006040517f94280d620000000000000000000000000000000000000000000000000000000081526004016118389190612650565b60405180910390fd5b81600160008673ffffffffffffffffffffffffffffffffffffffff1673ffffffffffffffffffffffffffffffffffffffff16815260200190815260200160002060008573ffffffffffffffffffffffffffffffffffffffff1673ffffffffffffffffffffffffffffffffffffffff16815260200190815260200160002081905550801561192e578273ffffffffffffffffffffffffffffffffffffffff168473ffffffffffffffffffffffffffffffffffffffff167f8c5be1e5ebec7d5bd14f71427d1e84f3dd0314c0f7b2291e5b200ac8c7c3b925846040516119259190611df3565b60405180910390a35b50505050565b600073ffffffffffffffffffffffffffffffffffffffff168373ffffffffffffffffffffffffffffffffffffffff160361198657806002600082825461197a919061223a565b92505081905550611a59565b60008060008573ffffffffffffffffffffffffffffffffffffffff1673ffffffffffffffffffffffffffffffffffffffff16815260200190815260200160002054905081811015611a12578381836040517fe450d38c000000000000000000000000000000000000000000000000000000008152600401611a099392919061266b565b60405180910390fd5b8181036000808673ffffffffffffffffffffffffffffffffffffffff1673ffffffffffffffffffffffffffffffffffffffff16815260200190815260200160002081905550505b600073ffffffffffffffffffffffffffffffffffffffff168273ffffffffffffffffffffffffffffffffffffffff1603611aa25780600260008282540392505081905550611aef565b806000808473ffffffffffffffffffffffffffffffffffffffff1673ffffffffffffffffffffffffffffffffffffffff168152602001908152602001600020600082825401925050819055505b8173ffffffffffffffffffffffffffffffffffffffff168373ffffffffffffffffffffffffffffffffffffffff167fddf252ad1be2c89b69c2b068fc378daa952ba7f163c4a11628f55a4df523b3ef83604051611b4c9190611df3565b60405180910390a3505050565b600081519050919050565b600082825260208201905092915050565b60005b83811015611b93578082015181840152602081019050611b78565b60008484015250505050565b6000601f19601f8301169050919050565b6000611bbb82611b59565b611bc58185611b64565b9350611bd5818560208601611b75565b611bde81611b9f565b840191505092915050565b60006020820190508181036000830152611c038184611bb0565b905092915050565b600080fd5b600080fd5b600073ffffffffffffffffffffffffffffffffffffffff82169050919050565b6000611c4082611c15565b9050919050565b611c5081611c35565b8114611c5b57600080fd5b50565b600081359050611c6d81611c47565b92915050565b6000819050919050565b611c8681611c73565b8114611c9157600080fd5b50565b600081359050611ca381611c7d565b92915050565b60008060408385031215611cc057611cbf611c0b565b5b6000611cce85828601611c5e565b9250506020611cdf85828601611c94565b9150509250929050565b60008115159050919050565b611cfe81611ce9565b82525050565b6000602082019050611d196000830184611cf5565b92915050565b600080fd5b600080fd5b600080fd5b60008083601f840112611d4457611d43611d1f565b5b8235905067ffffffffffffffff811115611d6157611d60611d24565b5b602083019150836001820283011115611d7d57611d7c611d29565b5b9250929050565b600080600060408486031215611d9d57611d9c611c0b565b5b6000611dab86828701611c94565b935050602084013567ffffffffffffffff811115611dcc57611dcb611c10565b5b611dd886828701611d2e565b92509250509250925092565b611ded81611c73565b82525050565b6000602082019050611e086000830184611de4565b92915050565b600080600060608486031215611e2757611e26611c0b565b5b6000611e3586828701611c5e565b9350506020611e4686828701611c5e565b9250506040611e5786828701611c94565b9150509250925092565b600060ff82169050919050565b611e7781611e61565b82525050565b6000602082019050611e926000830184611e6e565b92915050565b600080600080600060808688031215611eb457611eb3611c0b565b5b6000611ec288828901611c5e565b9550506020611ed388828901611c94565b945050604086013567ffffffffffffffff811115611ef457611ef3611c10565b5b611f0088828901611d2e565b93509350506060611f1388828901611c94565b9150509295509295909350565b600060208284031215611f3657611f35611c0b565b5b6000611f4484828501611c5e565b91505092915050565b6000611f5882611c15565b9050919050565b611f6881611f4d565b82525050565b6000602082019050611f836000830184611f5f565b92915050565b60008060408385031215611fa057611f9f611c0b565b5b6000611fae85828601611c5e565b9250506020611fbf85828601611c5e565b9150509250929050565b60008060208385031215611fe057611fdf611c0b565b5b600083013567ffffffffffffffff811115611ffe57611ffd611c10565b5b61200a85828601611d2e565b92509250509250929050565b61201f81611f4d565b811461202a57600080fd5b50565b60008135905061203c81612016565b92915050565b6000806040838503121561205957612058611c0b565b5b60006120678582860161202d565b925050602061207885828601611c94565b9150509250929050565b7f4e487b7100000000000000000000000000000000000000000000000000000000600052602260045260246000fd5b600060028204905060018216806120c957607f821691505b6020821081036120dc576120db612082565b5b50919050565b600081905092915050565b82818337600083830152505050565b600061210883856120e2565b93506121158385846120ed565b82840190509392505050565b600061212e8284866120fc565b91508190509392505050565b7f4e487b7100000000000000000000000000000000000000000000000000000000600052603260045260246000fd5b7f4e487b7100000000000000000000000000000000000000000000000000000000600052601160045260246000fd5b60006121a382611c73565b91506121ae83611c73565b92508282026121bc81611c73565b915082820484148315176121d3576121d2612169565b5b5092915050565b7f4e487b7100000000000000000000000000000000000000000000000000000000600052601260045260246000fd5b600061221482611c73565b915061221f83611c73565b92508261222f5761222e6121da565b5b828204905092915050565b600061224582611c73565b915061225083611c73565b925082820190508082111561226857612267612169565b5b92915050565b7f426574206e65656473206d6f7265207468616e20313020436f696e0000000000600082015250565b60006122a4601b83611b64565b91506122af8261226e565b602082019050919050565b600060208201905081810360008301526122d381612297565b9050919050565b7f6769766520616e2061637475616c20726f6f6d49440000000000000000000000600082015250565b6000612310601583611b64565b915061231b826122da565b602082019050919050565b6000602082019050818103600083015261233f81612303565b9050919050565b7f696e73756666696369656e742066756e64730000000000000000000000000000600082015250565b600061237c601283611b64565b915061238782612346565b602082019050919050565b600060208201905081810360008301526123ab8161236f565b9050919050565b60006123be8385611b64565b93506123cb8385846120ed565b6123d483611b9f565b840190509392505050565b600060408201905081810360008301526123fa8185876123b2565b90506124096020830184611de4565b949350505050565b60008160011c9050919050565b6000808291508390505b60018511156124685780860481111561244457612443612169565b5b60018516156124535780820291505b808102905061246185612411565b9450612428565b94509492505050565b600082612481576001905061253d565b8161248f576000905061253d565b81600181146124a557600281146124af576124de565b600191505061253d565b60ff8411156124c1576124c0612169565b5b8360020a9150848211156124d8576124d7612169565b5b5061253d565b5060208310610133831016604e8410600b84101617156125135782820a90508381111561250e5761250d612169565b5b61253d565b612520848484600161241e565b9250905081840481111561253757612536612169565b5b81810290505b9392505050565b600061254f82611c73565b915061255a83611c73565b92506125877fffffffffffffffffffffffffffffffffffffffffffffffffffffffffffffffff8484612471565b905092915050565b600081905092915050565b50565b60006125aa60008361258f565b91506125b58261259a565b600082019050919050565b60006125cb8261259d565b9150819050919050565b7f4661696c656420746f2073656e64204574686572000000000000000000000000600082015250565b600061260b601483611b64565b9150612616826125d5565b602082019050919050565b6000602082019050818103600083015261263a816125fe565b9050919050565b61264a81611c35565b82525050565b60006020820190506126656000830184612641565b92915050565b60006060820190506126806000830186612641565b61268d6020830185611de4565b61269a6040830184611de4565b94935050505056fea2646970667358221220fe19f2a6d5105dd9f4fcf0c73da733a708e2fec01f73f874267c19a83428236564736f6c63430008140033",
  "linkReferences": {},
  "deployedLinkReferences": {}
}